{
    "contractName": "CMLX",
    "abi": [
        {
            "inputs": [],
            "payable": false,
            "stateMutability": "nonpayable",
            "type": "constructor"
        },
        {
            "anonymous": false,
            "inputs": [
                {
                    "indexed": true,
                    "internalType": "address",
                    "name": "owner",
                    "type": "address"
                },
                {
                    "indexed": true,
                    "internalType": "address",
                    "name": "spender",
                    "type": "address"
                },
                {
                    "indexed": false,
                    "internalType": "uint256",
                    "name": "value",
                    "type": "uint256"
                }
            ],
            "name": "Approval",
            "type": "event"
        },
        {
            "anonymous": false,
            "inputs": [
                {
                    "indexed": true,
                    "internalType": "address",
                    "name": "from",
                    "type": "address"
                },
                {
                    "indexed": true,
                    "internalType": "address",
                    "name": "to",
                    "type": "address"
                },
                {
                    "indexed": false,
                    "internalType": "uint256",
                    "name": "value",
                    "type": "uint256"
                }
            ],
            "name": "Transfer",
            "type": "event"
        },
        {
            "constant": true,
            "inputs": [
                {
                    "internalType": "address",
                    "name": "owner",
                    "type": "address"
                },
                {
                    "internalType": "address",
                    "name": "spender",
                    "type": "address"
                }
            ],
            "name": "allowance",
            "outputs": [
                {
                    "internalType": "uint256",
                    "name": "",
                    "type": "uint256"
                }
            ],
            "payable": false,
            "stateMutability": "view",
            "type": "function"
        },
        {
            "constant": false,
            "inputs": [
                {
                    "internalType": "address",
                    "name": "spender",
                    "type": "address"
                },
                {
                    "internalType": "uint256",
                    "name": "amount",
                    "type": "uint256"
                }
            ],
            "name": "approve",
            "outputs": [
                {
                    "internalType": "bool",
                    "name": "",
                    "type": "bool"
                }
            ],
            "payable": false,
            "stateMutability": "nonpayable",
            "type": "function"
        },
        {
            "constant": false,
            "inputs": [
                {
                    "internalType": "address",
                    "name": "_spender",
                    "type": "address"
                },
                {
                    "internalType": "uint256",
                    "name": "_amount",
                    "type": "uint256"
                },
                {
                    "internalType": "bytes",
                    "name": "_extraData",
                    "type": "bytes"
                }
            ],
            "name": "approveAndCall",
            "outputs": [
                {
                    "internalType": "bool",
                    "name": "success",
                    "type": "bool"
                }
            ],
            "payable": false,
            "stateMutability": "nonpayable",
            "type": "function"
        },
        {
            "constant": true,
            "inputs": [
                {
                    "internalType": "address",
                    "name": "account",
                    "type": "address"
                }
            ],
            "name": "balanceOf",
            "outputs": [
                {
                    "internalType": "uint256",
                    "name": "",
                    "type": "uint256"
                }
            ],
            "payable": false,
            "stateMutability": "view",
            "type": "function"
        },
        {
            "constant": false,
            "inputs": [
                {
                    "internalType": "uint256",
                    "name": "amount",
                    "type": "uint256"
                }
            ],
            "name": "burn",
            "outputs": [],
            "payable": false,
            "stateMutability": "nonpayable",
            "type": "function"
        },
        {
            "constant": false,
            "inputs": [
                {
                    "internalType": "address",
                    "name": "account",
                    "type": "address"
                },
                {
                    "internalType": "uint256",
                    "name": "amount",
                    "type": "uint256"
                }
            ],
            "name": "burnFrom",
            "outputs": [],
            "payable": false,
            "stateMutability": "nonpayable",
            "type": "function"
        },
        {
            "constant": true,
            "inputs": [],
            "name": "decimals",
            "outputs": [
                {
                    "internalType": "uint8",
                    "name": "",
                    "type": "uint8"
                }
            ],
            "payable": false,
            "stateMutability": "view",
            "type": "function"
        },
        {
            "constant": false,
            "inputs": [
                {
                    "internalType": "address",
                    "name": "spender",
                    "type": "address"
                },
                {
                    "internalType": "uint256",
                    "name": "subtractedValue",
                    "type": "uint256"
                }
            ],
            "name": "decreaseAllowance",
            "outputs": [
                {
                    "internalType": "bool",
                    "name": "",
                    "type": "bool"
                }
            ],
            "payable": false,
            "stateMutability": "nonpayable",
            "type": "function"
        },
        {
            "constant": false,
            "inputs": [
                {
                    "internalType": "address",
                    "name": "spender",
                    "type": "address"
                },
                {
                    "internalType": "uint256",
                    "name": "addedValue",
                    "type": "uint256"
                }
            ],
            "name": "increaseAllowance",
            "outputs": [
                {
                    "internalType": "bool",
                    "name": "",
                    "type": "bool"
                }
            ],
            "payable": false,
            "stateMutability": "nonpayable",
            "type": "function"
        },
        {
            "constant": true,
            "inputs": [],
            "name": "name",
            "outputs": [
                {
                    "internalType": "string",
                    "name": "",
                    "type": "string"
                }
            ],
            "payable": false,
            "stateMutability": "view",
            "type": "function"
        },
        {
            "constant": true,
            "inputs": [],
            "name": "symbol",
            "outputs": [
                {
                    "internalType": "string",
                    "name": "",
                    "type": "string"
                }
            ],
            "payable": false,
            "stateMutability": "view",
            "type": "function"
        },
        {
            "constant": true,
            "inputs": [],
            "name": "totalSupply",
            "outputs": [
                {
                    "internalType": "uint256",
                    "name": "",
                    "type": "uint256"
                }
            ],
            "payable": false,
            "stateMutability": "view",
            "type": "function"
        },
        {
            "constant": false,
            "inputs": [
                {
                    "internalType": "address",
                    "name": "recipient",
                    "type": "address"
                },
                {
                    "internalType": "uint256",
                    "name": "amount",
                    "type": "uint256"
                }
            ],
            "name": "transfer",
            "outputs": [
                {
                    "internalType": "bool",
                    "name": "",
                    "type": "bool"
                }
            ],
            "payable": false,
            "stateMutability": "nonpayable",
            "type": "function"
        },
        {
            "constant": false,
            "inputs": [
                {
                    "internalType": "address",
                    "name": "_to",
                    "type": "address"
                },
                {
                    "internalType": "uint256",
                    "name": "_value",
                    "type": "uint256"
                },
                {
                    "internalType": "bytes",
                    "name": "_data",
                    "type": "bytes"
                }
            ],
            "name": "transferAndCall",
            "outputs": [
                {
                    "internalType": "bool",
                    "name": "success",
                    "type": "bool"
                }
            ],
            "payable": false,
            "stateMutability": "nonpayable",
            "type": "function"
        },
        {
            "constant": false,
            "inputs": [
                {
                    "internalType": "address",
                    "name": "sender",
                    "type": "address"
                },
                {
                    "internalType": "address",
                    "name": "recipient",
                    "type": "address"
                },
                {
                    "internalType": "uint256",
                    "name": "amount",
                    "type": "uint256"
                }
            ],
            "name": "transferFrom",
            "outputs": [
                {
                    "internalType": "bool",
                    "name": "",
                    "type": "bool"
                }
            ],
            "payable": false,
            "stateMutability": "nonpayable",
            "type": "function"
        }
    ],
    "bytecode": "608060405234801561001057600080fd5b506040805180820190915260128082527121b434b7309026b0b939b430b6102634b7b760711b602090920191825261004a916003916100e0565b50604080518082019091526004808252630869a98b60e31b602090920191825261007491816100e0565b506005805460ff191660121790556b033b2e3c9fd0803ce8000000600281905533600081815260208181526040808320859055805194855251929391927fddf252ad1be2c89b69c2b068fc378daa952ba7f163c4a11628f55a4df523b3ef9281900390910190a361017b565b828054600181600116156101000203166002900490600052602060002090601f016020900481019282601f1061012157805160ff191683800117855561014e565b8280016001018555821561014e579182015b8281111561014e578251825591602001919060010190610133565b5061015a92915061015e565b5090565b61017891905b8082111561015a5760008155600101610164565b90565b610fb18061018a6000396000f3fe608060405234801561001057600080fd5b50600436106100f55760003560e01c806342966c6811610097578063a457c2d711610066578063a457c2d71461034f578063a9059cbb1461037b578063cae9ca51146103a7578063dd62ed3e1461042c576100f5565b806342966c68146102d657806370a08231146102f557806379cc67901461031b57806395d89b4114610347576100f5565b806323b872dd116100d357806323b872dd146101d1578063313ce5671461020757806339509351146102255780634000aea014610251576100f5565b806306fdde03146100fa578063095ea7b31461017757806318160ddd146101b7575b600080fd5b61010261045a565b6040805160208082528351818301528351919283929083019185019080838360005b8381101561013c578181015183820152602001610124565b50505050905090810190601f1680156101695780820380516001836020036101000a031916815260200191505b509250505060405180910390f35b6101a36004803603604081101561018d57600080fd5b506001600160a01b0381351690602001356104f0565b604080519115158252519081900360200190f35b6101bf610506565b60408051918252519081900360200190f35b6101a3600480360360608110156101e757600080fd5b506001600160a01b0381358116916020810135909116906040013561050c565b61020f61057b565b6040805160ff9092168252519081900360200190f35b6101a36004803603604081101561023b57600080fd5b506001600160a01b038135169060200135610584565b6101a36004803603606081101561026757600080fd5b6001600160a01b038235169160208101359181019060608101604082013564010000000081111561029757600080fd5b8201836020820111156102a957600080fd5b803590602001918460018302840111640100000000831117156102cb57600080fd5b5090925090506105c0565b6102f3600480360360208110156102ec57600080fd5b5035610689565b005b6101bf6004803603602081101561030b57600080fd5b50356001600160a01b0316610696565b6102f36004803603604081101561033157600080fd5b506001600160a01b0381351690602001356106b1565b6101026106bf565b6101a36004803603604081101561036557600080fd5b506001600160a01b038135169060200135610720565b6101a36004803603604081101561039157600080fd5b506001600160a01b038135169060200135610775565b6101a3600480360360608110156103bd57600080fd5b6001600160a01b03823516916020810135918101906060810160408201356401000000008111156103ed57600080fd5b8201836020820111156103ff57600080fd5b8035906020019184600183028401116401000000008311171561042157600080fd5b509092509050610782565b6101bf6004803603604081101561044257600080fd5b506001600160a01b0381358116916020013516610893565b60038054604080516020601f60026000196101006001881615020190951694909404938401819004810282018101909252828152606093909290918301828280156104e65780601f106104bb576101008083540402835291602001916104e6565b820191906000526020600020905b8154815290600101906020018083116104c957829003601f168201915b5050505050905090565b60006104fd3384846108be565b50600192915050565b60025490565b60006105198484846109aa565b610571843361056c85604051806060016040528060288152602001610e7f602891396001600160a01b038a166000908152600160209081526040808320338452909152902054919063ffffffff610b4e16565b6108be565b5060019392505050565b60055460ff1690565b3360008181526001602090815260408083206001600160a01b038716845290915281205490916104fd91859061056c908663ffffffff610be516565b60006105cd3386866109aa565b604051635260769b60e11b8152336004820181815260248301879052606060448401908152606484018690526001600160a01b0389169363a4c0ed3693928992899289929190608401848480828437600081840152601f19601f82011690508083019250505095505050505050602060405180830381600087803b15801561065457600080fd5b505af1158015610668573d6000803e3d6000fd5b505050506040513d602081101561067e57600080fd5b505195945050505050565b6106933382610c46565b50565b6001600160a01b031660009081526020819052604090205490565b6106bb8282610d6b565b5050565b60048054604080516020601f60026000196101006001881615020190951694909404938401819004810282018101909252828152606093909290918301828280156104e65780601f106104bb576101008083540402835291602001916104e6565b60006104fd338461056c85604051806060016040528060258152602001610f58602591393360009081526001602090815260408083206001600160a01b038d168452909152902054919063ffffffff610b4e16565b60006104fd3384846109aa565b600061078e85856104f0565b6107df576040805162461bcd60e51b815260206004820152601b60248201527f45524332303a20417070726f766520756e73756363657366756c6c0000000000604482015290519081900360640190fd5b604051638f4ffcb160e01b81523360048201818152602483018790523060448401819052608060648501908152608485018790526001600160a01b038a1694638f4ffcb194938a93928a928a92919060a401848480828437600081840152601f19601f8201169050808301925050509650505050505050600060405180830381600087803b15801561087057600080fd5b505af1158015610884573d6000803e3d6000fd5b50600198975050505050505050565b6001600160a01b03918216600090815260016020908152604080832093909416825291909152205490565b6001600160a01b0383166109035760405162461bcd60e51b8152600401808060200182810382526024815260200180610f346024913960400191505060405180910390fd5b6001600160a01b0382166109485760405162461bcd60e51b8152600401808060200182810382526022815260200180610e0e6022913960400191505060405180910390fd5b6001600160a01b03808416600081815260016020908152604080832094871680845294825291829020859055815185815291517f8c5be1e5ebec7d5bd14f71427d1e84f3dd0314c0f7b2291e5b200ac8c7c3b9259281900390910190a3505050565b6001600160a01b0383166109ef5760405162461bcd60e51b8152600401808060200182810382526025815260200180610f0f6025913960400191505060405180910390fd5b6001600160a01b038216610a345760405162461bcd60e51b8152600401808060200182810382526023815260200180610dc96023913960400191505060405180910390fd5b6001600160a01b038216301415610a7c5760405162461bcd60e51b8152600401808060200182810382526023815260200180610ea76023913960400191505060405180910390fd5b610abf81604051806060016040528060268152602001610e59602691396001600160a01b038616600090815260208190526040902054919063ffffffff610b4e16565b6001600160a01b038085166000908152602081905260408082209390935590841681522054610af4908263ffffffff610be516565b6001600160a01b038084166000818152602081815260409182902094909455805185815290519193928716927fddf252ad1be2c89b69c2b068fc378daa952ba7f163c4a11628f55a4df523b3ef92918290030190a3505050565b60008184841115610bdd5760405162461bcd60e51b81526004018080602001828103825283818151815260200191508051906020019080838360005b83811015610ba2578181015183820152602001610b8a565b50505050905090810190601f168015610bcf5780820380516001836020036101000a031916815260200191505b509250505060405180910390fd5b505050900390565b600082820183811015610c3f576040805162461bcd60e51b815260206004820152601b60248201527f536166654d6174683a206164646974696f6e206f766572666c6f770000000000604482015290519081900360640190fd5b9392505050565b6001600160a01b038216610c8b5760405162461bcd60e51b8152600401808060200182810382526021815260200180610eee6021913960400191505060405180910390fd5b610cce81604051806060016040528060228152602001610dec602291396001600160a01b038516600090815260208190526040902054919063ffffffff610b4e16565b600080846001600160a01b03166001600160a01b0316815260200190815260200160002081905550610d2381604051806060016040528060298152602001610e3060299139600254919063ffffffff610b4e16565b6002556040805182815290516000916001600160a01b038516917fddf252ad1be2c89b69c2b068fc378daa952ba7f163c4a11628f55a4df523b3ef9181900360200190a35050565b610d758282610c46565b6106bb823361056c84604051806060016040528060248152602001610eca602491396001600160a01b0388166000908152600160209081526040808320338452909152902054919063ffffffff610b4e1656fe45524332303a207472616e7366657220746f20746865207a65726f206164647265737345524332303a206275726e20616d6f756e7420657863656564732062616c616e636545524332303a20617070726f766520746f20746865207a65726f206164647265737345524332303a206275726e2063617573696e67206e6567617469766520746f74616c20737570706c7945524332303a207472616e7366657220616d6f756e7420657863656564732062616c616e636545524332303a207472616e7366657220616d6f756e74206578636565647320616c6c6f77616e636545524332303a207472616e7366657220746f20636f6e7472616374206164647265737345524332303a206275726e20616d6f756e74206578636565647320616c6c6f77616e636545524332303a206275726e2066726f6d20746865207a65726f206164647265737345524332303a207472616e736665722066726f6d20746865207a65726f206164647265737345524332303a20617070726f76652066726f6d20746865207a65726f206164647265737345524332303a2064656372656173656420616c6c6f77616e63652062656c6f77207a65726fa265627a7a723158208f83da40a55740304ded7b5ee3001a5f2e0b372c8708d7d03b596ec7048396d164736f6c634300050f0032",
    "sourcePath": "c:/Users/rav3n/source/repos/cmlx/CMLX-Token.sol",
    "compiler": {
        "name": "solc",
        "version": "0.5.15+commit.6a57276f"
    },
    "functionHashes": {
        "allowance(address,address)": "dd62ed3e",
        "approve(address,uint256)": "095ea7b3",
        "approveAndCall(address,uint256,bytes)": "cae9ca51",
        "balanceOf(address)": "70a08231",
        "burn(uint256)": "42966c68",
        "burnFrom(address,uint256)": "79cc6790",
        "decimals()": "313ce567",
        "decreaseAllowance(address,uint256)": "a457c2d7",
        "increaseAllowance(address,uint256)": "39509351",
        "name()": "06fdde03",
        "symbol()": "95d89b41",
        "totalSupply()": "18160ddd",
        "transfer(address,uint256)": "a9059cbb",
        "transferAndCall(address,uint256,bytes)": "4000aea0",
        "transferFrom(address,address,uint256)": "23b872dd"
    },
    "gasEstimates": {
        "creation": {
            "codeDepositCost": "803400",
            "executionCost": "infinite",
            "totalCost": "infinite"
        },
        "external": {
            "allowance(address,address)": "1338",
            "approve(address,uint256)": "infinite",
            "approveAndCall(address,uint256,bytes)": "infinite",
            "balanceOf(address)": "1190",
            "burn(uint256)": "infinite",
            "burnFrom(address,uint256)": "infinite",
            "decimals()": "1058",
            "decreaseAllowance(address,uint256)": "infinite",
            "increaseAllowance(address,uint256)": "infinite",
            "name()": "infinite",
            "symbol()": "infinite",
            "totalSupply()": "1066",
            "transfer(address,uint256)": "infinite",
            "transferAndCall(address,uint256,bytes)": "infinite",
            "transferFrom(address,address,uint256)": "infinite"
        }
    }
}